:100000000A128A11FC2F00308A000408840A820731
:100010000034573445344C3443344F344D34453434
:10002000203454344F3420344D3449344E34493420
:100030002034503452344F344A34453443345434E9
:1000400021342134003459344F3455342034413470
:100050005234453420344434523455344E344B34C5
:1000600045344E34213421342134003459344F3452
:10007000553420344C344F344F344B3420344434D2
:1000800052344F34573453345934213421342134C9
:10009000003459344F3455342034433441344E34D1
:1000A000273454342034443452344934563445349B
:1000B0002134003459344F345534203443344134DE
:1000C0004E34203444345234493456344534213487
:1000D0000034483465346C346C346F342034553417
:1000E00053344534523421342134003457344134AC
:1000F00052344E3449344E3447342134213421347F
:020100000034C9
:100AE00018300A128A118E25080001300A128A1164
:100AF0008E250800F5007503031D842D7408803EC3
:100B00000A128A118E25080002307506031D08009E
:100B10007408C03E0A128A118E250800F300831261
:100B20000313061373080A128A1179260A128A110E
:100B30008312031386172130F2007630F100F10B97
:100B40009F2DF20B9F2D00008312031386130800C4
:100B5000F30083120313061773080A128A11792609
:100B60000A128A118312031386171A30F200F83022
:100B7000F100F10BB92DF20BB92D00008312031314
:100B800086130800F600F401F50174087607840066
:100B90000A128A1103200A128A11003A0319080066
:100BA0007408760784000A128A1103200A128A1137
:100BB0000A128A11A8250A128A110130F4070318B3
:100BC000F50A0030F507C52D83120313051C85189F
:100BD000F82D08100D30F200AF30F100B630F00003
:100BE000F00BF02DF10BF02DF20BF02D00000800B2
:100BF00008140D30F200AF30F100B630F000F00B09
:100C0000FF2DF10BFF2DF20BFF2D000008008312CA
:100C10000313051C85181C2E081288150D30F200D0
:100C2000AF30F100B630F000F00B142EF10B142EA3
:100C3000F20B142E00000800081688110D30F20087
:100C4000AF30F100B630F000F00B242EF10B242E63
:100C5000F20B242E0000080083120313051C8518D4
:100C6000412E881408110D30F200AF30F100B6307B
:100C7000F000F00B392EF10B392EF20B392E00005B
:100C80000800881008110D30F200AF30F100B630C6
:100C9000F000F00B492EF10B492EF20B492E00000B
:100CA000080001300A128A11C2250A128A11F901BC
:100CB000FA017A08803AFF0080307F02031D622E1D
:100CC00064307902031808002130F8007630F7000C
:100CD000F70B682EF80B682E00000A128A11702597
:100CE0000A128A110130F9070318FA0A0030FA07CC
:100CF000592EF000701C802E831203130714832ECC
:100D0000831203130710F01C872E8714882E871078
:100D1000701D8C2E07158D2E0711F01D912E871535
:100D2000922E8711701E962E0716972E0712F01E10
:100D30009B2E87169C2E8712701FA02E0717A12EA0
:100D40000713F01FA52E8717080087130800063029
:100D5000831603139F0005148514860188018701FB
:100D60000A128A11E9260A128A11F401F40A0130E2
:100D70000A128A117A250A128A110A128A11512638
:100D80000A128A110330FD008A30FC005530FB0046
:100D9000FB0BC82EFC0BC82EFD0BC82ECF2E0A1243
:100DA0008A1175250A128A110A128A112C260A1232
:100DB0008A110A128A1135270A128A110A128A1117
:100DC00007260A128A110A128A11E4250A128A11C8
:100DD000002800300A128A1179260A128A11831219
:100DE00003130613A330F5005530F400F40BF62E70
:100DF000F50BF62E30300A128A118E250A128A114E
:100E00002130F5007630F400F40B042FF50B042F9D
:100E1000000030300A128A118E250A128A116230BF
:100E2000F5006530F400F40B132FF50B132F182F7A
:100E300030300A128A118E250A128A1138300A12AD
:100E40008A118E250A128A110C300A128A118E25F7
:100E50000A128A1101300A128A118E250A128A1189
:100E600006300A128A118E25080083120313051C0E
:100E70008518692F0A128A1175250A128A11F40140
:100E8000F40A01300A128A117A250A128A11613095
:100E90000A128A11C2250A128A11F401F40A0230D8
:100EA0000A128A117A250A128A1152300A128A11FC
:100EB000C2250A128A111A30F9005E30F8006E302D
:100EC000F700F70B612FF80B612FF90B612F000072
:100ED0000800051885189B2F0A128A1175250A1219
:100EE0008A11F401F40A01300A128A117A250A12D1
:100EF0008A111B300A128A11C2250A128A11F401C2
:100F0000F40A02300A128A117A250A128A11413033
:100F10000A128A11C2250A128A111A30F9005E30AB
:100F2000F8006E30F700F70B932FF80B932FF90BA7
:100F3000932F00000800051C851CCD2F0A128A1172
:100F400075250A128A11F401F40A01300A128A1175
:100F50007A250A128A112E300A128A11C2250A1223
:100F60008A11F401F40A02300A128A117A250A124F
:100F70008A1141300A128A11C2250A128A111A30C6
:100F8000F9005E30F8006E30F700F70BC52FF80B54
:100F9000C52FF90BC52F000008000A128A1175250C
:100FA0000A128A11F401F40A01300A128A117A2510
:100FB0000A128A116E300A128A11C2250A128A1187
:100FC000F401F40A02300A128A117A250A128A11EF
:100FD00041300A128A11C2250A128A111A30F90008
:100FE0005E30F8006E30F700F70BF42FF80BF42F9B
:100FF000F90BF42F0000080083010A128A11A72EB2
:00000001FF
